:020000040800F2
:10000000901B0020D101000843210008E31F0008D5
:10001000412100086F0500082F3F00080000000084
:100020000000000000000000000000005B24000849
:100030005F06000800000000592400085D24000845
:10004000EB010008EB010008EB010008EB010008E0
:10005000EB010008EB010008EB010008EB010008D0
:10006000EB010008EB010008EB010008EB010008C0
:10007000EB010008EB010008EB010008EB010008B0
:10008000EB010008EB010008EB010008EB010008A0
:10009000B93E0008EB010008EB010008EB01000885
:1000A000EB010008EB010008EB010008EB01000880
:1000B000EB010008D9240008EB010008EB0100085F
:1000C000EB010008EB010008EB010008EB01000860
:1000D000EB010008EB010008EB010008EB01000850
:1000E000EB010008EB010008EB01000800F002F84A
:1000F00000F05FF80AA090E8000C82448344AAF163
:100100000107DA4501D100F054F8AFF2090EBAE860
:100110000F0013F0010F18BFFB1A43F0010318473B
:10012000084C0000284C00000A444FF0000C10F866
:10013000013B13F0070408BF10F8014B1D1108BF65
:1001400010F8015B641E05D010F8016B641E01F805
:10015000016BF9D113F0080F1EBF10F8014BAD1C55
:100160000C1B09D16D1E58BF01F801CBFAD505E073
:1001700014F8016B01F8016B6D1EF9D59142D6D3CD
:10018000704700000023002400250026103A28BFF5
:1001900078C1FBD8520728BF30C148BF0B607047F9
:1001A000642900F07D80002070471FB51FBD10B589
:1001B00010BD00F0A2F91146FFF7F7FF03F0FCFEB7
:1001C00000F0C0F903B4FFF7F2FF03BC00F0C8F978
:1001D0000948804709480047FEE7FEE7FEE7FEE7DB
:1001E000FEE7FEE7FEE7FEE7FEE7FEE70448054917
:1001F000054A064B70470000D7240008ED000008B0
:1002000090150020901B00209017002090170020D0
:100210000FB41CB5074B06AA7B44694600900598AD
:1002200000F053F90020694600F062F91CBC5DF84B
:1002300014FB0000D50200002DE9F0410E460446F3
:10024000002020622046E168884730B3252805D089
:10025000D4E901219047206A401CF2E7E16820467A
:1002600000278847050018D0A5F14100192802D8B9
:1002700020354FF400673246294620462760FFF7B5
:100280008FFF40B1012804D0F61D26F0070608367E
:10029000D8E7361DD6E72846DAE7206ABDE8F081C0
:1002A0002DE9F0410646002410687529314616A54F
:1002B00010D0AFF30080002802DA404213A507E017
:1002C00031688A0701D512A502E0490704D511A5B6
:1002D000012401E0AFF3008000210A2206F1240787
:1002E00009E0B0FBF2FCB0FBF2F302FB1C00303083
:1002F00078541846491C0028F3D123462A46304634
:10030000BDE8F04100F083B8000000002D000000BF
:100310002B0000002000000010B5431C02E010F884
:10032000011B71B18107FAD14FF0013202C88C1A5A
:100330008C4314EAC211F9D0C01A0A0603D0C01EB9
:1003400010BDC01A10BD0A0401D0801E10BD0902E4
:10035000FCD0401E10BD10B5203AC0F00B80B1E8B3
:100360001850203AA0E81850B1E81850A0E81850EA
:10037000BFF4F5AF5FEA027C24BFB1E81850A0E8F3
:10038000185044BF18C918C0BDE810405FEA827C0D
:1003900024BF51F8043B40F8043B08BF7047D20724
:1003A00028BF31F8023B48BF11F8012B28BF20F8C5
:1003B000023B48BF00F8012B70474FF0000200B528
:1003C000134694469646203922BFA0E80C50A0E878
:1003D0000C50B1F12001BFF4F7AF090728BFA0E826
:1003E0000C5048BF0CC05DF804EB890028BF40F8F2
:1003F000042B08BF704748BF20F8022B11F0804F34
:1004000018BF00F8012B70477047704770472DE9FF
:10041000F0470D4699469246044600F124080168CB
:10042000880604D5E06921F01001216000E0012078
:10043000A84201DD471B00E00027A1697A1902EB01
:100440000900081AA0612078C00602D42046AFF344
:100450000080002608E0D4E901211AF80600904740
:10046000206A401C761C20624E45F4DB2078C006D2
:100470000AD52046AFF3008006E0D4E90121302000
:100480009047206A401C2062381EA7F10107F4DC67
:1004900007E0D4E9012118F805009047206A401CC4
:1004A0002062281EA5F10105F3DC2046AFF3008091
:1004B0002078000602D50220BDE8F0870120FBE786
:1004C00001694A1C02610878704700B58FB0CDE918
:1004D00001310021059105497944CDE90310114608
:1004E0006846FFF7A9FE0FB000BD0000E5FFFFFF63
:1004F0000A6802F8010B0A607047754600F02CF894
:10050000AE4605006946534620F00700854618B000
:1005100020B5FFF76BFEBDE820404FF000064FF01E
:1005200000074FF000084FF0000B21F00701AC4628
:10053000ACE8C009ACE8C009ACE8C009ACE8C00947
:100540008D46704710B50446AFF300802046BDE8E5
:100550001040FFF737BE00000048704730150020FC
:1005600001491820ABBEFEE7260002007047FEE7F7
:10057000002070470020704710B50022044905484C
:1005800002F0E8F90449034802F0DEF9002010BD4A
:10059000240C0020600300202408002010B5014630
:1005A000034802F0D1F9024802F0B2F9002010BD70
:1005B00060030020094A10B5D2F8B822D2F81422FC
:1005C0000AB1012010BD0A460146044802F0C2F9F2
:1005D000BDE81040014802F01BBA00006003002093
:1005E00030B5054B002285189C5C521C2C710A2AE0
:1005F000F9DB016030BD00000000002093B20A4624
:100600000F21AFF300802DE9F04104461D46164648
:100610000F46642000F05CF8E7716672231D00222B
:10062000A57201201D5C401C2A4492B20728F9DB08
:100630005042020AE27220730A22211D2068BDE89E
:10064000F0414FF47A7301F073BC0A0ACBB2062171
:10065000FFF7D9BF00231A461621FFF7D4BF704712
:1006600072B6FEE73EB5184C206804F0F7F9A4F125
:100670000C05296804F00AFA04F0D4F900906068C7
:1006800004F0ECF9696804F001FA04F0CBF9019088
:10069000A06804F0E3F9A96804F0F8F90B4904F044
:1006A0005FF904F0BFF902900098FF2809DD019876
:1006B000FF2806DD0298FF2803DDFF20009001904F
:1006C000029068463EBD0000A801002000004040A6
:1006D00070B5044600F004F90546601C02D00448D9
:1006E0000078044400F0FCF8401BA042FAD370BD2F
:1006F000180000202DE9F84FDFF8B891002409F127
:10070000040A0AF1040B23460F270BF1040EC9E07B
:100710000125A5402A40AA427DD1674ED1F804C0E8
:10072000ACEB0608B44532D014DCBCF1030F3AD070
:1007300009DCBCF1000F2AD0BCF1010F1CD0BCF1C8
:10074000020F31D11DE0BCF1110F17D0BCF1120F17
:100750002AD119E0B8F5881F19D006DCB8F5803F1A
:1007600015D0B8F5801F1FD111E0B8F5001F0ED0CD
:10077000B8F5041F18D10AE0CB6815E0CB681B1D43
:1007800012E0CB6808330FE0CB680C330CE08B68C9
:100790002BB1012B4FF0080303D0456104E0042383
:1007A00002E0056100E00023FF2A01D8064601E0CF
:1007B00000F104064FEA840501D9A5F12005D6F819
:1007C000008007FA05FC28EA0C0803FA05F548EA58
:1007D0000508C6F800804D68ED0062D5374DAE695A
:1007E00046F00106AE61AD6924F0030605F001058F
:1007F0000095334D06EB050CDCF80850A607360FC4
:1008000007FA06F825EA0805DFF8B880404503D165
:100810004FF0000817E044E0DFF8AC80404502D11B
:100820004FF001080FE0DFF8A480404502D14FF0FF
:10083000020808E0DFF89880404502D14FF0030835
:1008400001E04FF0040808FA06F848EA0508CCF879
:1008500008804D68D9F80060ED034D4601D5164378
:1008600000E096432E604D68DAF80060AD0355460F
:1008700001D5164300E096432E604D68DBF800601A
:10088000ED025D4601D5164300E096432E604D68AB
:10089000DEF80060AD02754601D5164300E09643D0
:1008A0002E60641C0D682A46E5407FF431AFBDE838
:1008B000F88F0000000401400000111000100240F9
:1008C0000000014000080140000C01400010014000
:1008D000001401400AB1016170470904FBE7000000
:1008E00001488068704700001800002002488168B5
:1008F000027811448160704718000020074810B545
:10090000016841F010010160032000F075F80F202C
:1009100000F006F800F024F8002010BD002002408E
:1009200070B50D4D04464FF47A712878B1FBF0F0A4
:100930000A490968B1FBF0F001F030F848B9102C11
:1009400007D200222146501E00F036F800206C60CD
:1009500070BD012070BD00001800002024000020A0
:100960000C4808B5816941F001018161816901F09C
:1009700001010091C16941F08051C161C06900F07D
:10098000805000900448416821F0E06141F000711E
:10099000416008BD0010024000000140002809DB52
:1009A00000F01F02012191404009800000F1E02089
:1009B000C0F8001170470000F0B40E4B1B680C46E5
:1009C000C3F30223C3F10705042D00D90425191D23
:1009D000072901D2002300E0DB1E012606FA05F1FB
:1009E000491E214099409E40761E16403143F0BC7E
:1009F00003F09EBA0CED00E0064900F0070208681B
:100A00004FF6FF03184040EA0220034A10430860F3
:100A1000704700000CED00E00000FA0510B50C0670
:100A200007D501F0070101EB810100EBC10028307F
:100A300005E001EB810100EBC10000F5B47099B253
:100A400032B1012202730181190C4181002010BDD5
:100A500000220273C180F9E7704701EB810200EBCD
:100A6000C202D0F8E802D26B02F081B901EB810238
:100A700000EBC202D0F8E802D2F87C2102F0DAB929
:100A800070B504460B0601F0070000EB800104EB93
:100A9000C1014FF001024FF0000503D581F8292074
:100AA000283103E081F8695101F5B471087094F8B8
:100AB000A802012808D084F8A822206802F0FAFDD4
:100AC00084F8A852002070BD022070BD70B50446A5
:100AD00001F00F006268904201D9012070BD0B0641
:100AE00001F0070000EB800104EBC1014FF00102AF
:100AF0004FF0000503D581F82920283103E081F863
:100B0000695101F5B4718D70087094F8A80201283C
:100B100008D084F8A822206802F069FE84F8A85260
:100B2000002070BD022070BD2DE9F05F04685FEA0F
:100B3000424C0B788D69B4F850C04FF000064BF66C
:100B40008F7948F2800A48F68F7B48F2C00E4FF446
:100B500080672AD54FF0020808EBC308C44407EBAE
:100B60004C07E45BC4F30904A54203D32D1B8D613C
:100B700001D00BE08E61066836F8235005EA0905BE
:100B800085F4005545EA0A0526F82350520609D592
:100B90000D78036833F8252002EA0B0242EA0E02C0
:100BA00023F8252084B30A8929E04FF0060808EBD2
:100BB000C308C44407EB4C07E45BC4F30904A54233
:100BC00003D32D1B8D6101D00BE08E61066836F8D2
:100BD000235005EA090585F4005545EA0A0526F87B
:100BE0002350520609D40B78056835F8232002EA11
:100BF0000B0242EA0E0225F823202CB14A894969EA
:100C00000068234603F062F92046BDE8F09F2DE915
:100C1000F05F054600680C465FEA426C16468B6939
:100C20002278B0F850C048F68F774CF280094FF622
:100C3000FF7B4FF4004E4FF4806A4FF000017BD5EC
:100C40004FF0020808EBC208E0440AEB480C30F809
:100C50000C00C0F30900834211D91B1AA3610FD005
:100C6000730407D52E6836F822303B4043EA090367
:100C700026F8223094F82420012A50D04EE1A161B8
:100C8000607810B1012813D01AE02868B0F850300D
:100C9000184400EB0210B0F8042422F4F842A0F843
:100CA0000424B0F8042442F40042A0F8042407E02D
:100CB0002868B0F85030184400EB0210A0F8041473
:100CC0006278286812B1012A11D018E0B0F85010EB
:100CD0000844217800EB0110B0F80C1421F4F8411D
:100CE000A0F80C14B0F80C1441F4004105E0B0F881
:100CF00050201044227800EB0210A0F80C14217848
:100D00002846FFF7AAFE7004B8D521782A6832F881
:100D10002100384040EA090022F82100FEE0626923
:100D200002446261E2690244E2612369226A9A42F2
:100D300003D31846111A04E038E084F824100AB1ED
:100D400010462162617811B1012923D02BE0296876
:100D5000B1F850201144227801EB021101F2044154
:100D600048B13E280FD84208C30700D0521C0BEAF6
:100D700082220A8017E00A8822F4F8420A800A8850
:100D800042F40042F5E74209C30600D1521E4EEA82
:100D90008222EEE72968B1F850201144227801EB55
:100DA0000211A1F8040483B22289B3E04FF00608CF
:100DB00008EBC208E0440AEB480C30F80C00C0F322
:100DC0000900834211D31B1AA3610FD0730407D407
:100DD0002E6836F822303B4043EA090326F82230D9
:100DE00094F82420012A50D098E0A161607810B1D5
:100DF000012813D01AE02868B0F85030184400EBEE
:100E00000210B0F8042422F4F842A0F80424B0F848
:100E1000042442F40042A0F8042407E02868B0F853
:100E20005030184400EB0210A0F8041462782868CF
:100E300012B1012A11D018E0B0F8501008442178FE
:100E400000EB0110B0F80C1421F4F841A0F80C14D8
:100E5000B0F80C1441F4004105E0B0F85020104403
:100E6000227800EB0210A0F80C1421782846FFF736
:100E7000F4FD700452D42278296831F822003840F9
:100E800040EA090021F8220048E0626902446261F8
:100E9000E2690244E2612369226A9A4203D3184656
:100EA000111A216204E00AB11046216284F824106C
:100EB0006278296812B1012A22D029E0B1F85020C5
:100EC0001144227801EB021101F20C4148B13E2895
:100ED0000FD84208C30700D0521C0BEA82220A80B6
:100EE00016E00A8822F4F8420A800A8842F4004296
:100EF000F5E74209C30600D1521E4EEA8222EEE710
:100F0000B1F850201144227801EB0211A1F80C0431
:100F1000628983B26169286802F0F6FF21782A6845
:100F200032F8210048F6BF73184080F0300048F2D4
:100F30008003184322F821000020BDE8F09F01F053
:100F4000070101EB810100EBC100D0F8840170477B
:100F50002DE9F04104460F0601F0070000EB800187
:100F600004EBC1014FF001064FF0000503D581F8F5
:100F70002960283103E081F8695101F5B4710870E6
:100F80000A61CB704A7802B1C881022B00D10D7181
:100F900094F8A802012809D084F8A862206802F019
:100FA0005BFA284684F8A852BDE8F0810220FBE7EE
:100FB00070B50C4601F0070505EB850100EBC1019A
:100FC000C1E95F230022C1F8842181F8692181F8F9
:100FD000685101F5B4716207006802F05DFC002001
:100FE00070BD70B504460D4601F007006168884287
:100FF00001D9012070BD29064FF000064FF0010213
:1010000007D500EB800104EBC10181F829202831CC
:1010100007E005EB850104EBC10181F8696101F589
:10102000B4718A70087094F8A802012807D084F877
:10103000A822206802F017FC680702D006E0022010
:1010400070BD04F52C71206802F0CFFB84F8A86213
:10105000002070BD70B50C4601F0070505EB850159
:1010600000EBC101C1E90F23012281F84C208B6400
:1010700000234B6481F8292001F8285F620700688B
:1010800002F00AFC002070BD1FB50446006802F0A3
:1010900019FF000402D5204601F054F8206802F040
:1010A00011FF40050CD5206830F8441F21F4806101
:1010B0000180204600F01EF90021204600F035F99D
:1010C000206802F0FFFE400405D5206830F8441F78
:1010D00021F480410180206802F0F4FE800405D5EF
:1010E000206830F8441F21F400510180206802F08C
:1010F000E9FEC00414D5206830F8401F21F0040137
:101100000180206830F8401F21F00801018020464E
:1011100000F003F9206830F8441F21F48051018069
:10112000206802F0CFFE00053ED522680020694607
:1011300032F8203021F81030401CC0B20828F7D314
:1011400032F8400F40F001001080206830F8402F46
:1011500022F0010202802068B0F844205205FBD53D
:1011600030F8442F22F4806202800020236831F896
:10117000102023F82020401CC0B20828F6D3206895
:1011800030F8401F41F008010180206830F8441F0A
:1011900021F400610180206830F8401F41F0040113
:1011A0000180204600F0F6F8206802F08BFE8005F2
:1011B00008D5206830F8441F21F4007101802046D2
:1011C00000F0AFF8206802F07DFEC00505D520686C
:1011D00030F8441F21F4807101801FBD2DE9F041DA
:1011E00086B0040004D094F8A902002520B108E0DC
:1011F000012006B0BDE8F08184F8A852204600F036
:101200005BF8032084F8A902206802F0E7FA04F1F1
:101210001001142288466846FFF79DF894E80F00F5
:1012200002F046FA0226D0BB0021206802F064FEDC
:10123000002001270FE000BF00EB800104EBC1019B
:1012400081F8297001F8280FC881CD700D614D61BA
:10125000401CC0B28D6161688142EDD8002011E070
:1012600000EB800104EBC10181F8695181F868014C
:1012700081F86B51C1F87851C1F87C51401CC0B263
:10128000C1F8805161688142EAD81422414668461B
:10129000FFF761F894E80F0002F097FA10B184F8B4
:1012A000A962A5E784F8245084F8A972206802F0A6
:1012B0008AFA00209DE7000008B500680B498842C3
:1012C00012D10B48C16941F40001C161C06900221B
:1012D00000F40000009011461420FFF76DFBBDE8FC
:1012E00008401420FFF75ABB08BD0000005C004016
:1012F0000010024070B5044680680125022801D024
:10130000FFF7AEF92946D4F8E80201F07CFED4F8E4
:10131000E802BDE8704001F038BED0F8E80201F004
:101320005CBED0F8E80201F062BE10B5044690F849
:10133000A80201280BD0012084F8A80284F8241008
:10134000206802F0DBFD002084F8A80210BD022016
:1013500010BDD0F8E82200F52C71104601F05FBEF8
:1013600010B5044690F8A802012810D0012084F896
:10137000A802206802F096FD01212046FFF76CFBD1
:10138000206802F01EFA002084F8A80210BD022096
:1013900010BD000010B50446D0F8E80201F07EFE52
:1013A000A069002804D00348016841F006010160EB
:1013B00010BD000010ED00E02DE9F843054600786F
:1013C000354CC00754D0E0690026C00008D4E0695D
:1013D00040F08050E061E069012600F0805000900C
:1013E0002E480168C90512D40168804641F4807115
:1013F0000160FFF775FA074605E000BFFFF770FAD6
:10140000C01B642823D8D8F80000C005F6D5206A90
:1014100010F4407021D0A98801F4407181421CD0A1
:10142000206A1F49012220F440700A6000220A60ED
:101430002062C00711D0FFF753FA074641F28838FF
:1014400008E000BFFFF74CFAC11B414502D9032059
:10145000BDE8F883206A8007F4D5206A696820F423
:101460004070084320621EB1E06920F08050E061C6
:101470002878800705D56068A96820F440400843B3
:1014800060602878C00605D56068E96820F48000AF
:10149000084360600020DBE700100240007000405D
:1014A000400442422DE9F0470F46050061D0434E0B
:1014B000306800F00700B84209D2306820F0070019
:1014C00038433060306800F00700B84251D12868D6
:1014D0003B4C810712D5400703D5606840F4E060BB
:1014E00060602878000703D5606840F46050606051
:1014F0006068A96820F0F000084360602878C007A1
:1015000028D06868012810D02168022810D08907E7
:1015100000292EDA616821F0030101436160FFF7C1
:10152000DFF9804641F288390DE021688903EFE751
:101530008901EDE7FFF7D4F9A0EB0801494502D98D
:101540000320BDE8F0876068696800F00C00B0EB2C
:10155000810FEFD1306800F00700B8420BD9306836
:1015600020F0070038433060306800F00700B842D0
:1015700001D00120E5E72878400705D56068E968D3
:1015800020F4E060084360602878000706D56068B2
:10159000296920F4605040EAC100606000F038F82A
:1015A0006168084AC1F30311515CC84006490860EC
:1015B00006480068FFF7B4F90020C2E700200240A7
:1015C000001002400E4D0008240000201C000020E6
:1015D0000448054900684968044AC1F30221515C86
:1015E000C840704724000020001002401E4D000833
:1015F0000448054900684968044AC1F3C221515CA6
:10160000C840704724000020001002401E4D000812
:1016100012A185B00FC98DE80F0014A0144A00680C
:1016200004905168134801F00C03042B10D0082BD0
:101630000ED1C1F38343C9031DF803000AD55168D5
:1016400004AAC1F34041515C0A4A5043B0FBF1F097
:1016500005B0704708494843FAE700000203040553
:10166000060708090A0B0C0D0E0F101001020000EE
:101670000010024000127A0000093D002DE9F84FE9
:10168000040070D02078C04DC00749D06868C0F30E
:101690008100012807D06868C0F38100022809D1C1
:1016A0006868C00306D52868800339D560680028BB
:1016B000E7D035E06068B0F5803F0BD010B1B0F5F1
:1016C000A02F11D0286820F480302860286820F4EA
:1016D000802002E0286840F480302860606890B183
:1016E000FFF7FEF806460AE0286840F480202860EC
:1016F000F0E700BFFFF7F4F8801B642873D8286870
:101700008003F7D50CE0FFF7EBF8064605E000BFD5
:10171000FFF7E6F8801B6428F0D828688003F7D428
:1017200020789A4E80074FF001094FF0000839D514
:10173000686810F00C0F07D06868C0F381000228B9
:1017400009D16868C00306D42868800714D52069C9
:10175000012808D110E02069B0B1C6F80090FFF769
:10176000BFF8074605E00AE1FFF7BAF8C01B0228F8
:10177000C4D828688007F7D52868616920F0F80088
:1017800040EAC10028600DE0C6F80080FFF7A8F825
:10179000074604E0FFF7A4F8C01B022823D82868F6
:1017A0008007F7D4207800072CD57948A169D9B1F2
:1017B000C0F80090FFF794F8074604E0FFF790F8B0
:1017C000C01B02280FD8686A8007F7D571484FF40C
:1017D000FA510068B0FBF1F0009000BF0098411E84
:1017E0000091FAD20EE080E0C0F80080FFF778F8B0
:1017F000074604E0FFF774F8C01B022875D8686A32
:101800008007F7D42078400760D5E8690027C0003A
:1018100008D4E86940F08050E861E869012700F0E9
:10182000805000905C480168C90513D40168834664
:1018300041F480710160FFF753F8824606E000BF73
:10184000FFF74EF8A0EB0A0064284ED8DBF8000042
:10185000C005F5D5E06801280AD008B1052813D0E5
:10186000286A20F001002862286A20F0040002E0C3
:10187000286A40F001002862E06841F2883B98B194
:10188000FFF72EF882460BE0286A40F00400286239
:10189000EEE700BFFFF724F8A0EB0A0159455AD83C
:1018A000286A8007F6D50CE0FFF71AF8824605E0B3
:1018B000FFF716F8A0EB0A0159454CD8286A8007B3
:1018C000F6D41FB1E86920F08050E861E06988B380
:1018D0006968C1F38101022944D00228C6F86080FA
:1018E00004D0FEF7FDFF044638E034E0FEF7F8FFD1
:1018F000074604E0FEF7F4FFC01B02282BD8286837
:101900008001F7D4206AB0F5803F05D16868A168EE
:1019100020F4003008436860D4E90801084369688E
:1019200021F4741108436860C6F86090FEF7D8FF90
:10193000044606E025E000BFFEF7D2FF001B0228A8
:1019400009D828688001F7D51BE000BFFEF7C8FF63
:10195000001B022802D90320BDE8F88F2868800107
:10196000F4D40EE00128F7D06868226A00F48031D0
:10197000914204D1616A00F47010884201D00120C4
:10198000EAE70020E8E700000010024000004242C1
:1019900080044242240000200070004010B5401E28
:1019A000B0F1807F01D3012010BD4FF0E0246061D1
:1019B0000F21601702F0BCFA0020A061072020610F
:1019C000002010BD7047704770B590F83C20012A88
:1019D00026D0012480F83C40022280F83D20036894
:1019E0005A689D6822F070060A6832435A600D4BAF
:1019F00002689A4208D0B2F1804F05D00A4B9A4251
:101A000002D00A4B9A4204D1496825F08003194359
:101A1000916080F83D40002180F83C10084670BD80
:101A2000022070BD002C014000040040000800406E
:101A300010B5040003D094F83D0010B107E0012078
:101A400010BD002084F83C00204600F01FF8022062
:101A500084F83D00211D206800F044FD012084F839
:101A6000460084F83E0084F83F0084F8400084F883
:101A7000410084F8420084F8430084F8440084F86C
:101A8000450084F83D00002010BD000000B585B081
:101A90000021009101910291039101681748B1F171
:101AA000804F14D0164A91420FD1C16941F0020112
:101AB000C161C069002200F00200049011461D209F
:101AC000FEF77AFF1D20FEF769FF05B000BDC16972
:101AD00041F00101C161C16901F001010491816915
:101AE00041F0040181618069694600F004000490BE
:101AF000012000900348FEF7FDFDE6E700100240DC
:101B0000000400400008014090F83D10012901D078
:101B100001207047022180F83D100168CA6842F038
:101B20000102CA6000680B49884208D0B0F1804FBA
:101B300005D00949884202D00849884204D1816809
:101B400001F00701062903D0016841F0010101609D
:101B500000207047002C01400004004000080040B5
:101B600070B5044690F83C00012817D0012584F890
:101B70003C50022084F83D002068826822F0770201
:101B800022F47F4282600868502830D00DDC202883
:101B90004DD005DC98B310283BD148E0022070BD41
:101BA000302844D0402834D139E0602828D070282B
:101BB00006D0B0F5805F2CD0B0F5005F29D10AE0E7
:101BC000CB68D1E90121206800F0C2FC206881685F
:101BD00041F0770109E0CB68D1E90121206800F0EC
:101BE000B7FC2068816841F48041816011E0CA68D7
:101BF0004968206800F001FD5021206807E016E0E8
:101C0000CA684968206800F009FD6021206800F07A
:101C1000A9FC84F83D50002084F83C0070BDCA68DF
:101C20004968206800F0E9FC40212068EFE722685D
:101C300001461046EBE7704770B50446006801693D
:101C40004FF00005C943890715D4C168C943890706
:101C500011D4E91E01610120207720688069800786
:101C6000204602D0FFF7E7FF04E000F098F8204696
:101C700000F096F8257720680169C943490717D411
:101C8000C168C943490713D46FF004010161022000
:101C900020772068806910F4407F204602D0FFF74B
:101CA000CAFF04E000F07BF8204600F079F82577C1
:101CB00020680169C943090716D4C168C9430907E7
:101CC00012D46FF008010161042020772068C069F8
:101CD0008007204602D0FFF7AEFF04E000F05FF877
:101CE000204600F05DF8257720680169C943C906E0
:101CF00017D4C168C943C90613D46FF0100101613C
:101D0000082020772068C06910F4407F204602D068
:101D1000FFF791FF04E000F042F8204600F040F8A1
:101D2000257720680169C943C90708D1C168C9433B
:101D3000C90704D1891E0161204600F033F82068EC
:101D40000169C943090609D4C168C943090605D414
:101D50006FF0800101612046FFF734FE20680169C1
:101D6000C943490609D4C168C943490605D46FF07F
:101D700040010161204600F070F820680169C94304
:101D800089060BD4C168C943890607D46FF02001C6
:101D900001612046BDE87040FFF715BE70BD704779
:101DA0007047000070B5154900680968884213D172
:101DB000124C483C2068406A114A002550609368E4
:101DC0005BB1A4F1E401012B09D0022B0DD0032B50
:101DD0000FD055602068456270BD002107E00860A3
:101DE000012108E000F02CFCF4E74860012100200C
:101DF000F8E7886000210120F4E70000D402002009
:101E00000C00002070B5044690F83C00012812D068
:101E1000012584F83C50022084F83D00204600F063
:101E2000A9FB01004FF0000007D084F83D5084F872
:101E30003C00012070BD022070BD2168CA6822F0FC
:101E40004002CA602168CA6822F48042CA6084F8ED
:101E50003D5084F83C00002070BD704770B5040010
:101E600004D094F83D00002510B106E0012070BDBB
:101E700084F83C50204600F023F8242084F83D00EC
:101E80002068C16821F40051C160204600F0E2FBE7
:101E90002068016921F4904101612068416921F0C5
:101EA0002A0141612068C16841F40051C160256484
:101EB000202084F83D0084F83E00002070BD000022
:101EC00030B585B000240094019402940394006816
:101ED0001449884224D11448816941F480418161C8
:101EE000816901F480410491816941F004018161BB
:101EF00080690E4D00F0040004904FF400700090D3
:101F0000022001900320039069462846FEF7F2FB69
:101F10002815CDE90004694628460294FEF7EAFB3D
:101F200005B030BD003801400010024000080140FB
:101F30002DE9F843044690F83D001F4616460D462D
:101F400020284CD1C5B1BEB194F83C00012846D040
:101F5000012084F83C004FF00008C4F840802120A4
:101F600084F83D00FEF7BCFCA6848146E684A068A8
:101F7000B0F5805F03D004E00120BDE8F88320695C
:101F800028B12E465FF0000584F83C800EE0002664
:101F9000FAE78021204600F0B9FBA0B9AEB116F8EF
:101FA000010B21684860E08C401EE084E08C4B46C9
:101FB0004FF0000200970028EBD14FF0400120467F
:101FC00000F0A4FB30B10320D7E735F8020BC0F3D3
:101FD0000800E6E7202084F83D000020CDE702203D
:101FE000CBE7FEE7F0B500230A24302537261F464D
:101FF00011E000BFB4EB107F02D905EB107C01E0CB
:1020000006EB107C01F813C001EB430C00015B1CD4
:102010008CF80170DBB29342ECD3F0BD10B588B000
:1020200014216846FEF7C9F90024154805944FF0BD
:1020300080410694C0E900144FF6FF71C0E90241E7
:1020400004618461FFF7F4FC08B172B6FEE7072073
:1020500000905020CDE90104694609480494FFF737
:10206000D1FE08B172B6FEE7059405A904480694AE
:10207000FFF7AAFC002801D072B6FEE708B010BD39
:102080008C02002010B586B00024174800940194FB
:1020900002940394049413490594016040F2CF2103
:1020A000C0E9011442F20F71C0E903148461FFF723
:1020B000BFFC08B172B6FEE74FF48050009069464D
:1020C0000948FFF74DFD08B172B6FEE7049404A974
:1020D00005480594FFF778FC002801D072B6FEE7AA
:1020E00006B010BD00040040D402002010B500224C
:1020F0000F49104800F014FE08B1FEF7B1FA0E497E
:102100000C4800F0F1FF08B1FEF7AAFA0B490948A4
:1021100000F012FC08B1FEF7A3FA064801F03AF805
:10212000002803D0BDE81040FEF79ABA10BD0000A9
:1021300028000020600300206401002078000020B7
:10214000FEE7FEE72DE9F84F044640F68F7B48F6A0
:102150000F7A4FF002094FF4806874E1B0F8441030
:1021600011F00F063AD030F8267039047DD530F8DA
:10217000261001EA0B0141F0800120F8261006EB41
:10218000860004EBC00595F8740105F5B4750028C8
:102190006CD0E87802286AD02878226832F82010BB
:1021A00048F68F73194048F2C003194322F82010F3
:1021B0002878D4F800C03CF82010BCF8502049041E
:1021C0007ED509EBC000111808EB41003CF8000077
:1021D0008005800D009074D02A89D8E0C9062DD4DE
:1021E000018801EA0A0141F400410180216804F1FB
:1021F0002805B1F850202B7809EBC300024408EB06
:102200004200085AC0F309006064E16B0844E063CF
:1022100000212046FEF721FC94F8240000289CD0E1
:10222000A869002899D194F82400216840F0800022
:10223000A1F84C00002084F8240004E1018804F592
:10224000B4750A0521D5B0F850202B78062101EB92
:10225000C3010A4408EB4201405A04F52C71C0F353
:102260000903EB61EA88206802E0ACE068E07AE00C
:1022700001F02CFE2168088800EA0B0040F0800085
:1022800008802046FFF765F8DDE00904D5D5018810
:1022900001EA0B0141F0800101802068B0F8502074
:1022A0002B78062101EBC3010A4408EB4201405A96
:1022B00083059B0DEB6110D0696971B1EA8801E07B
:1022C00058E056E0206801F001FEE96968690844B9
:1022D000686100212046FEF7C9FB206801880905D6
:1022E0002DD4B0F850100844296900F20C4051B1C7
:1022F0003E2910D84A08C90700D0521C4FF6FF717A
:1023000001EA82210FE0018821F4F841018001886F
:1023100041F4004107E04A09C90600D1521E4FF4BA
:10232000004141EA82210180206801884BF68F72CA
:10233000114081F4405148F280021143018082E053
:10234000D4F800C0BCF850102A78062000EBC20078
:10235000014408EB41003CF800008005800D00902E
:102360001AD0EA8813E03A4629462046FEF7DCFBFD
:10237000009011E0062101EBC000111808EB4100AC
:102380003CF800008005800D009005D06A89034666
:102390006046696901F09AFDE96900980844E861BE
:1023A0006969009808446861A86918B129690098AA
:1023B000814204D929782046FEF758FB03E02946DC
:1023C000206801F069FA38063DD506EB860004EB7B
:1023D000C001206830F8262002EA0A0242F40042D6
:1023E00020F8262091F82B002831032804D018B1BA
:1023F000022824D1F80522D42368B3F850200D78A0
:1024000009EBC500024408EB4200185A8A69C0F380
:10241000090082420CD9121A8A610BD04A6902441F
:102420004A61CA691044C861206801F035FA0AE0BF
:1024300000208861E9B22046FEF70FFB03E03A4630
:102440002046FEF7E4FB2068B0F8441009043FF58D
:1024500085AE0020BDE8F88F70477047FEF746BA9A
:1024600030B593B028216846FDF7A7FF14210AA8CC
:10247000FDF7A3FF002401200F9410941194010490
:1024800012948DE8130004904FF4E010CDE9081089
:10249000022507956846FFF7F1F808B172B6FEE726
:1024A0000F20CDE90A054FF48060CDE90C400221F0
:1024B0000AA80E94FEF7F6FF08B172B6FEE71020E8
:1024C0000F9012940FA8FEF777FF002801D072B684
:1024D000FEE713B030BD70470148FFF7ADBB000009
:1024E000D4020020F0B50268164B174C174D4FF080
:1024F0008047984205D0B84203D0A04201D0A842FC
:1025000003D122F070064A683243984205D0B8429F
:1025100003D0A04201D0A84203D122F44074CA687B
:1025200022434C6922F08002224302608A68C26220
:102530000A688262984201D10969016301214161FF
:10254000F0BD0000002C01400004004000080040E5
:1025500010B5846842EA032224F47F440A432243EC
:10256000826010BD826822F070020A4342F00701C7
:102570008160704710B503689A6822F070044A6859
:10258000224322F007040A6822439A604A6812F044
:102590000F0F30D11211082A2DD2DFE802F02C2CB7
:1025A0002C2C0B2127040B69D1E902210068FFF7CD
:1025B000CFFF20E00A68052A10D00268136A146A67
:1025C00024F00104146202689469096924F0F0049B
:1025D00044EA01119161006803620CE0012010BD22
:1025E0000A698968006800F008F804E00A698968E7
:1025F000006800F013F8002010BD10B5036A046AEB
:1026000024F001040462846924F0F00444EA021412
:1026100023F00A020A438461026210BD10B5036A06
:1026200023F0100303628369046A23F4704343EACE
:10263000023224F0A00343EA01118261016210BD5D
:10264000034A0023536093685B1C936001F080BCD5
:102650000C00002070B5044600680169E26821F4AE
:102660004051114301612169A06808436169084331
:102670002168CA6841F20C639A430243CA60206829
:102680004169A26921F44071114341611E492068EA
:10269000884202D1FEF7ACFF01E0FEF799FF00EBA4
:1026A000C00101EB0012606864218000B2FBF0F30E
:1026B000B3FBF1F36FF018067343B2FBF0F5B2FB16
:1026C000F0F605EB8305322303EB0515B5FBF1F5B9
:1026D000B6FBF1F605F0F00505EB0615B2FBF0F6DA
:1026E000B2FBF0F0B0FBF1F06FF01802504306EBD4
:1026F000800003EB0010B0FBF1F0216800F00F0048
:102700002844886070BD0000003801402DE9F04188
:10271000984617460E460446069D1DE0681C1BD0D1
:102720002DB1FEF7DDF8A0EB0800A84214D920680F
:10273000C16821F4D071C1602068416921F00101B4
:102740004161202084F83D0084F83E00002084F898
:102750003C000320BDE8F0812068006836EA0000F4
:1027600004D00020B842D9D00020F3E70120F9E7D7
:102770002DE9F041D0F8C032D0F8B822CAB101EB4F
:10278000810500EB85040026E7693FB103EBC50333
:102790009B6BB7FBF3F503FB157323B1C2F814620F
:1027A0000020BDE8F08100231A46E66100F07FFCBE
:1027B000F6E70220F5E770B50546D0F8B84200F01C
:1027C0007AFBC4F80C02D5F8B80248B1D5F8BC12AF
:1027D000D4F80402CA6804F503719047002070BD64
:1027E000022070BD70B504460026812100F0B6FAC3
:1027F000002501212046E56200F0B0FA8221204642
:10280000C4F86C5100F0AAFA2564D4F8B80248B1B3
:10281000D4F8BC0204F52E7440688047206800F0AC
:1028200016FE2560304670BD10B5D0E9AE4159B1F5
:1028300094F80002FF2807D08B6894F80122214603
:102840009847FF2084F80002002010BD0A21018073
:10285000004870478C0000204321018000487047E9
:10286000DC000020432101800048704798000020D0
:102870004321018000487047200100202DE9F041EC
:1028800004460026007C4FF40077012590B34023D6
:1028900002228121204600F063FB4023E5620222F0
:1028A0000121204600F05CFB082303228221204600
:1028B000C4F86C5100F054FB4FF40770256400F02D
:1028C000C7FDC4F8B802F8B10546D4F8BC020068E8
:1028D00080470020C5F81402C5F81802207CD5F8FE
:1028E000042298B140230121204600F045FB3046E8
:1028F000BDE8F081FFE73B4602228121204600F03F
:102900002FFB3B46E562CAE70126F0E73B46EAE7D4
:1029100010B5D0F8B81269B1027C002AD1F80422AF
:1029200005D04023012100F027FB002010BD4FF40B
:102930000073F7E7022010BD02460220002902D0F2
:102940000020C2F8BC127047D0F8B802C0F80412D8
:1029500000207047D0F8B802C0F81022C0F8081262
:10296000002070472DE9FC410546D0F8B8720020E0
:102970008DF80000ADF80400064608780C4610F00B
:10298000600121D020293BD1E288AAB100066078FD
:1029900007D5D5F8BC128B6839469847E288394686
:1029A00026E087F80002A07987F80102E28839461C
:1029B000284600F06AF828E0D5F8BC1260780022BA
:1029C0008B682146984720E0607820B10A2809D01A
:1029D0000B2815D110E095F89C02032810D1022293
:1029E00001A905E095F89C02032809D10122694656
:1029F000284600F064F808E095F89C02032804D00B
:102A00002146284600F036F802263046BDE8FC8113
:102A100010B5D0F8B812A1B1D1F814220AB1012032
:102A200010BD0122C1F81422D1F810220263B1F8BE
:102A3000102293B2D1F80822812100F038FB002047
:102A400010BD022010BD10B5D0F8B42252689047D6
:102A5000002010BD134610B50A46002100F08CFA84
:102A6000002010BD134610B50A46002100F01FFBE0
:102A7000002010BD10B50446802100F0FDFA20466C
:102A8000BDE81040002100F0F7BA10B50323C0F8EC
:102A90005C21C0F89432C0F8602113460A46002138
:102AA00000F06AFA002010BD10B505210023C0F81F
:102AB00094121A46194600F05FFA002010BD10B5B6
:102AC0000223C261C0F89432026213460A46002112
:102AD00000F0EDFA002010BD10B504210023C0F86D
:102AE00094121A46194600F0E2FA002010BD0000C8
:102AF00010B50A46024903A000F0E2F8004810BDF4
:102B00002406002043444320436F6E66696700003B
:102B100012200880004870474800002010B50A467F
:102B2000024903A000F0CCF8004810BD24060020A4
:102B300043444320496E746572666163650000001A
:102B400004200880004870474400002010B50A4661
:102B5000024903A000F0B4F8004810BD240600208C
:102B600053544D6963726F656C656374726F6E69FF
:102B70006373000010B50A46024903A000F0A0F8F4
:102B8000004810BD2406002053544D3332205669AE
:102B9000727475616C20436F6D506F727400000029
:102BA00010B51A2008800A480168001D0468001D3D
:102BB0000068081809D008220649FFF713FA0549EA
:102BC000042210312046FFF70DFA0248801E10BD86
:102BD000E8F7FF1F5E000020F8B504460020ADF8BE
:102BE000000048880D46010A082948D2DFE801F0B4
:102BF0004704091747473C45D4F8B012207C0A68BF
:102C000019E0207C02260028D4F8B40205D0C16A5D
:102C100068468847014646703EE0816AF8E7C0B2E0
:102C200006282CD2DFE800F0030A1014181CD4F890
:102C3000B002426805E0694690471CE0D4F8B00253
:102C40008268E2B1207CF6E7D4F8B002C268F8E707
:102C5000D4F8B0020269F4E7D4F8B0024269F0E7B0
:102C6000D4F8B0028269ECE7207C40B9D4F8B40211
:102C7000416B6846884701460EE0207C20B129461A
:102C80002046FFF7F7FEF8BDD4F8B402016B6846A2
:102C90008847014607204870BDF8000048B1EA881F
:102CA00052B1824200D90246ADF800202046FFF71B
:102CB00006FFE8880028E6D12046FFF70DFFF8BDA3
:102CC00070B5002300281ED00446002502E06D1CCC
:102CD000EDB2641C2678002EF9D1022404EB4504E1
:102CE00014801278CA545B1C0322CA5400245B1C53
:102CF00006E0CA545B1CDAB28C54521CD3B2401C9E
:102D00000278002AF5D170BD01004FF0000004D018
:102D1000012901D0022901D002207047012070470B
:102D200010B580B1D0F8B43213B10023C0F8B4327A
:102D300009B1C0F8B012012180F89C12027000F0B5
:102D4000BFF8002010BD022010BD10B5D0F8C002A1
:102D5000FDF7BCFEBDE81040FFF7D6BF10B5D0F8B8
:102D6000C002FDF78DFEBDE81040FFF7CDBF2DE995
:102D7000F0411746044651B1D4F8B40242691AB181
:102D800094F89C02032851D00220BDE8F081D4F8C9
:102D90009432002504F11400022B03D0042B3AD006
:102DA000C3B33CE0D0E903639E4207D9F11AC16086
:102DB0008AB239462046FFF755FE12E08068B0FB24
:102DC000F3F103FB110199B9984211D3D4F8981289
:102DD00088420DD2002211462046FFF743FEC4F878
:102DE000985200231A461946204600F0C5F816E00E
:102DF000D4F8B402C16829B194F89C02032801D127
:102E0000204688478021204600F036F92046FFF70B
:102E10004BFE04E0FFE78021204600F02DF994F8F6
:102E2000A002012804D184F8A05201E02046904776
:102E30000020AAE770B51546044649B1D4F8B4029B
:102E400082691AB194F89C02032830D0022070BD28
:102E5000D4F8941204F5AA70032902D005291ED0D3
:102E600027E0D0E903218A420BD9531AC3600846F0
:102E7000834200D303469AB229462046FFF7EAFD73
:102E800017E0D4F8B402016929B194F89C02032830
:102E900001D1204688472046FFF71EFE09E00020AA
:102EA0000146C4F89402204600F0E6F801E020460E
:102EB0009047002070BDD0F8C002FEF740B8000077
:102EC00010B504461C481D49C0F8E842C4F8C002C9
:102ED0000160082141600221816000218161C1619E
:102EE0000162FEF77BF908B1FDF7BAFB0022D4F8C6
:102EF000C0021823114604F53074FDF78FFD5823E6
:102F0000002280212068FDF789FDC0230022812155
:102F10002068FDF783FD4FF48873002201212068AB
:102F2000FDF77CFD4FF48073002282212068FDF7BD
:102F300075FD002010BD000044120020005C004020
:102F40000A0601F07F01D0F8C00201EB810100EB1D
:102F5000C10002D590F82A00704790F86A017047C6
:102F600010B51C461346D0F8C0022246FDF7F0FF0C
:102F7000BDE81040FFF7C8BE10B5D0F8C002FEF79C
:102F800017F8BDE81040FFF7BFBE70B50022044639
:102F900040231146FFF7E4FF40260125C4F8646191
:102FA0003346002280212046C4F85851FFF7D8FF4D
:102FB0006662A56184F89C520020C4F894026060A7
:102FC000C4F8A402D4F8B80228B1D4F8B40200219D
:102FD000426820469047002070BD90F89C1204295A
:102FE00003D190F89D1280F89C120020704710B514
:102FF00090F89C12032904D1D0F8B412C96901B128
:103000008847002010BD01740020704710B5D0F82B
:10301000C002FEF78AF9BDE81040FFF775BE70B533
:10302000044600F52A70054600F04AF80120C4F86D
:103030009402B4F8AE02C4F8980294F8A80210F012
:103040001F010AD001290DD0022910D000F0800103
:10305000204600F011F8002070BD2946204600F0FF
:103060009EF8F8E72946204600F0CAF9F3E729461A
:10307000204600F01DF9EEE710B5D0F8C002FDF7CC
:10308000B0FFBDE81040FFF73FBE10B5D0F8C0025A
:10309000FEF766F9BDE81040FFF736BE90F89C12C7
:1030A00080F89D12042180F89C120020704710B512
:1030B000D0F8C002FDF7CEFFBDE81040FFF724BEF8
:1030C0000A7802704A7842708A78CB7802EB032241
:1030D00042800A794B7902EB032282808A79C9798E
:1030E00002EB0121C18070470246002011B1C2F8F5
:1030F000B41270470220704710B5D0F8B4220224F1
:103100001AB11268904700B90024204610BD000093
:1031100070B50E461E4D897804462970012931D8B4
:1031200094F89C0202280BD003280FD03146204689
:10313000FFF7A0FC29782046BDE87040FFF783BC6C
:10314000D9B10320616084F89C0209E071B1606824
:10315000884212D0C1B22046FFF775FC2978616021
:103160002046FFF7C9FF02280CD006E0022084F8B1
:103170009C0220466160FFF766FC2046BDE8704077
:10318000FFF7AABC31462046BDE87040FFF772BC8D
:103190008800002010B5FFF778FF002010BD2DE952
:1031A000F0410A78002612F0600208D0202A01D0EF
:1031B000402A70D1D0F8B422926890476DE04B78E5
:1031C000002201250A2B66D2DFE803F0405D655737
:1031D000650805652C29FFF7FFFC5EE0044688883A
:1031E000D8B9C888C8B94888802816D200F07F07A7
:1031F00094F89C02032810D084F89E723946204629
:10320000FFF704FF2046FFF767FC1FB1022084F898
:103210009C0242E084F89C523FE020463BE0FFF7EE
:1032200077FF3AE0CB88012B35D190F89C32012B07
:1032300004D0022B02D0032B2DD104E082600122A6
:1032400000F1080116E00122011D13E090F89C2214
:10325000012A03D0022A01D0032A1CD1CA88022ADB
:1032600019D1C560D0F8A41209B10321C1600222AE
:1032700000F10C01FFF723FC0FE0498801290CD174
:10328000C0F8A45211E090F89C32012B08D0022B18
:1032900006D0032B04D0FFF7EDFB3046BDE8F081EC
:1032A00049880129F9D1C0F8A422FFF715FCF4E7F9
:1032B0002DE9F0410A46044610780027097910F0FC
:1032C00060030AD0202B01D0402B50D1D4F8B40297
:1032D00011468368204698478FE0C0F341100128CB
:1032E00006D05078D0B301282AD003283FD107E078
:1032F000D4F8B402114683682046BDE8F04118476F
:1033000094F89C02022802D0032872D10AE071B31B
:1033100080296ED02046FFF7AFFE80212046FFF7C0
:10332000ABFE6AE0508838B931B1802904D0D0882A
:1033300010B92046FFF7A0FE2046FFF7CDFB5CE06A
:1033400094F89C020228E2D0032852D1508898BBFE
:103350004806F1D02046FFF7F8FCEDE7FFE794F8C8
:103360009C020026022803D0032842D112E040E04C
:1033700009B180293DD1080601F07F0000EB8000F3
:1033800004EB800101D5143101E001F5AA7102229C
:103390000E602AE0080601F00F0000EB800004EB4D
:1033A00080000AD5806920B301F07F0000EB800027
:1033B00004EB800514350BE01FE0D0F85801C0B1D4
:1033C00001F07F0000EB800004EB800505F5AA7595
:1033D00041B1802906D02046FFF7B2FD10B101208F
:1033E000286000E02E60022229462046FFF767FB96
:1033F00003E011462046FFF73DFB3846BDE8F0816B
:1034000070B5054608780C4610F0600003D02028FF
:1034100001D0402816D195F89C02012803D002283B
:1034200001D003280ED1207901280BD8D5F8B40299
:10343000826828469047E188014306D12846FFF775
:103440004BFB02E02846FFF715FB002070BD7047DC
:1034500000487047241000202DE9F0470C78002622
:1034600030F8243048F68F121340CA78002A7DD0F5
:10347000012A7CD0022A02D0032A7FD0012648F2FA
:103480008002134320F824300D7830F8254048F6A8
:103490008F731C402C43144320F825400D7B48F2C9
:1034A000C00C48F6BF744CF280074BF68F79EDB331
:1034B00091F80080C24630F8285048F280181D402C
:1034C00045EA080520F82A50B0F8505091F80080DD
:1034D000054405EB0815B1F8088028F00108A5F8A7
:1034E0000084B0F8505091F80080054405EB0815B1
:1034F000B1F80A8028F00108A5F808844D78002D5D
:103500000D7830F825804FEA48487DD0B8F1000F9B
:1035100007DA30F8258008EA030848EA070820F8A7
:1035200025800F7830F827506D0600E02CE006D596
:1035300030F827501D4045EA0C0520F82750CB787D
:103540000D78012B30F8253003EA040301D083F015
:103550002003134320F825300B7830F8231001EABC
:103560000901114320F82310304602E003E008E08F
:1035700004E0BDE8F08743F4007380E743F4C063E0
:103580007DE743F480637AE74D782DB3B0F850506F
:103590000F78054405EB0715CF8827F00107A5F83C
:1035A00000740F7830F827506D0606D530F8275094
:1035B0001D4045EA0C0520F82750CB78012B06D09A
:1035C0000B7830F82310214081F02001C9E70B78F7
:1035D00030F823102140C4E7B0F850400D7804447F
:1035E00004EB0514CD8825F00105A4F80854B0F8C3
:1035F00050400D78044404EB05140D6904F20C44AA
:1036000075B13E2D14D800E030E04FEA550CED07BF
:1036100001D00CF1010C4FF6FF7505EA8C2511E085
:10362000258825F4F8452580258845F4004509E0DE
:103630004FEA551CED0601D1ACF1010C4FF40045E9
:1036400045EA8C2525800D7830F82540640405D5A1
:1036500030F825401C403C4320F825400B7830F8DA
:10366000231001EA090181F440517AE7B8F1000F13
:1036700007DA30F8258008EA030848EA070820F846
:1036800025800F7830F827506D0606D530F8275082
:103690001D4045EA0C0520F827500D7830F82530FC
:1036A00003EA090383F44053134320F825308EE7DF
:1036B000002070472DE9F04391F80C804F780A788C
:1036C00048F6BF7C4BF68F7948F2800348F2C0057C
:1036D0004CF2800648F68F74B8F1000F28D0002F06
:1036E00030F822704FEA474748D0002F05DA30F80B
:1036F00022702740374320F822700A7830F8227071
:103700007F0605D530F8227027402F4320F822701D
:103710000D7830F825202240324320F825200C78FF
:1037200030F8242002EA0C021A4320F824201AE080
:103730007FB130F82260760605D530F82260264049
:103740002E4320F822600A7830F8221001EA0C019A
:103750000EE030F822506D0405D530F82250254097
:10376000354320F822500A7830F8221001EA090186
:10377000194320F822100020BDE8F083002F05DA5D
:1037800030F822702740374320F822700A7830F84A
:103790002260760605D530F8226026402E4320F8B8
:1037A00022600E7830F8262022402A4320F8262076
:1037B0000C7830F8242002EA09021A4320F8242069
:1037C000C1E70020704700207047012120F8401F0A
:1037D00000210180818001820846704730F8401F37
:1037E00021F43F410180002070470020704730B530
:1037F0000A7BB2BB4A7848F68F7548F28004C2B1A2
:103800000B7830F82320520607D530F823202A40C1
:1038100048F2C0052A4320F82320CA78012A20D084
:103820000A7830F8221048F6BF73194081F0200161
:1038300014E00A7830F822305B0407D530F82230E3
:103840002B404CF280052B4320F822300A7830F8C8
:1038500022104BF68F73194081F44051214320F818
:103860002210002030BD10B54A780978002A48F2AD
:10387000800330F8212005D048F6BF74224082F042
:10388000100204E04BF68F74224082F480521A43F7
:1038900020F82120002010BD2DE9F0470E464B787E
:1038A000097B04464FF0000948F68F7248F2800AFF
:1038B0004FF6FF774FF40048012B09D000296ED056
:1038C000F07802286CD001286BD00120BDE8F08789
:1038D000B5693069854200D90546C9B1F17848F229
:1038E0008013022923D0317834F821001040184386
:1038F00024F82100306A401B3062307834F8201000
:10390000490671787ED500297DD001297CD03FE120
:10391000ABB2F2882046716900F0F6FAB4F85000B4
:103920003178204400EB0110A0F80454EAE0316A39
:1039300081426AD9317834F821001040184324F8C4
:103940002100306A401B3062307834F8201049067C
:1039500071786CD511B1012924D02AE0B4F8501047
:10396000214401EB001000F20C404DB13E2D0FD868
:103970006908EA0700D0491C07EA8121018018E0A4
:10398000018821F4F8410180018841F40041F5E704
:103990006909EA0600D1491E48EA8121EEE79CE167
:1039A000BCE126E2B4F85020111901EB0010A0F898
:1039B0000C547289ABB22046716900F0A5FA7069A7
:1039C000284470613169306A884202D9401B3062F4
:1039D00002E00546C6F82090707800287CD1B4F843
:1039E00050003178204400EB011000F204406DB12A
:1039F0003E2D13D86908EA0700D0491C07EA812147
:103A0000018012E001E19BE0BBE084E0018821F449
:103A1000F8410180018841F40041F1E76909EA06B3
:103A200000D1491E48EA8121EAE7328965E011B1F7
:103A3000012921D027E0B4F85010214401EB0010F7
:103A400000F204404DB13E2D0FD86908EA0700D0BE
:103A5000491C07EA8121018015E0018821F4F84121
:103A60000180018841F40041F5E76909EA0600D1C7
:103A7000491E48EA8121EEE7B4F85010214401EBD9
:103A80000010A0F804543289ABB22046716900F0EE
:103A90003BFA7069284470613169306A884202D902
:103AA000401B306202E00546C6F82090707800287E
:103AB0007ED1B4F850003178204400EB011000F2C0
:103AC0000C4055B13E2D10D86908EA0700D0491CBA
:103AD00007EA812101800FE072E0018821F4F841BA
:103AE0000180018841F40041F4E76909EA0600D148
:103AF000491E48EA8121EDE77289ABB2204671691F
:103B000000F002FA317834F8210048F6BF72104014
:103B100080F03000C0E1327834F8220048F68F633C
:103B2000184040EA0A0024F82200B4F85000327825
:103B3000204400EB02108BB2A0F804343289DDE798
:103B4000B4F85010214401EB001000F20C404DB1CC
:103B50003E2D0FD86908EA0700D0491C07EA8121E9
:103B6000018015E0018821F4F8410180018841F4C9
:103B70000041F5E76909EA0600D1491E48EA8121BA
:103B8000EEE7B4F85020111901EB0010A0F80C5426
:103B90007289ABB22046716900F0B6F970692844A9
:103BA00070613169306A884203D9401B306203E09A
:103BB0006EE00546C6F82090002DA3D0707858B16D
:103BC00001287FF41EAFB4F850003178204400EB98
:103BD0000110A0F8045428E7B4F8500031782044CC
:103BE00000EB011101F204413E2D06D86808EA07F6
:103BF00000D0401C07EA802005E06809EA0600D1F1
:103C0000401E48EA802008800FE711B1012921D029
:103C100027E0B4F85010214401EB001000F20440FA
:103C20004DB13E2D0FD86908EA0700D0491C07EABC
:103C30008121018015E0018821F4F841018001888B
:103C400041F40041F5E76909EA0600D1491E48EA56
:103C50008121EEE7B4F85010214401EB0010A0F8E8
:103C600004543289ABB22046716900F04DF9706995
:103C7000284470613169306A884202D9401B306241
:103C800002E00546C6F82090002D96D0707858B115
:103C900001287FF420AFB4F850100819317800EBF8
:103CA0000110A0F80C5427E7B4F8500031782044F4
:103CB00000EB011101F20C413E2D06D86808EA071D
:103CC00000D0401C07EA802005E06809EA0600D120
:103CD000401E48EA802008800EE7B16930698142C1
:103CE00002D9091AB161B5E00846C6F81890B1E0EA
:103CF000088820F4F8400880088840F400400BE071
:103D00003E2875D84208C00700D0521C07EA82201E
:103D100002E000BF48EA82200880B5E093B9B4F819
:103D200050003178204400EB0110316900F204406A
:103D300069B13E2913D84B08C90700D05B1C07EABC
:103D400083210180707888B1012832D03AE001885F
:103D500021F4F8410180018841F40041F1E74B0969
:103D6000C90600D15B1E48EA8321EAE7B4F8500097
:103D70003178204400EB0110316900F20C4049B168
:103D80003E290FD84B08C90700D05B1C07EA8321E6
:103D9000018017E0018821F4F8410180018841F495
:103DA0000041F5E74B09C90600D15B1E48EA8321B3
:103DB000EEE7B4F850100819317800EB0110318AA1
:103DC000A0F80C14F069A8B3317834F8210043044A
:103DD00001D5430603D444F24003184254D134F8C9
:103DE0002100104048F2C002104324F821004BE0AB
:103DF0003CE0B1693069814202D9091AB16102E03F
:103E00000846C6F818908BB9B4F85010327821449F
:103E100001EB021101F2044168B13E2813D84208B7
:103E2000C30700D0521C07EA82220A80717889B148
:103E3000012921D028E00A8822F4F8420A800A8861
:103E400042F40042F1E74209C30600D1521E48EA9B
:103E50008222EAE7B4F850103278214401EB0211D3
:103E600001F20C4100287FF44BAF41E74209C00644
:103E70007FF450AF521E4DE7B4F85020111932783C
:103E800001EB0211A1F80C04317834F821004BF653
:103E90008F72104080F4405040EA0A0024F821005C
:103EA000002013E50021A0F844104FF43F41A0F892
:103EB00040100020704700000148FDF7E5B8000001
:103EC00044120020B0F844007047000010B500EB29
:103ED00042005C0800F5806009D000BF30F8042B78
:103EE00001F8012B120A01F8012B641EF6D1DA0742
:103EF00001D00088087010BD0020704711B98021E2
:103F0000A0F84C100020704710B55B1C00EB42007D
:103F10005B0800F5806009D011F8012B11F8014B06
:103F200042EA042220F8042B5B1EF5D110BDFEE707
:103F30000907090E002804DB00F1E02080F80014D6
:103F4000704700F00F0000F1E02080F8141D70476A
:103F500070B50C460546174E204309D1002240217A
:103F60003046FCF7B7FC002280213046FCF7B2FC5B
:103F70001DB1012D1DD124B10DE0012C19D100225C
:103F80000CE0012240213046FCF7A4FC00228021F5
:103F90003046FCF79FFC012C0BD10122402130461A
:103FA000FCF798FC3046BDE8704001228021FCF708
:103FB00091BC70BD0008014086B0FCF79FFCFEF785
:103FC0004FFA0024FC480094019402940394816900
:103FD00041F020018161816901F020010491816932
:103FE00041F0040181618069F44D00F00400049007
:103FF0000022F0212846FCF76DFCF0200090012003
:10400000CDE901040320039069462846FCF772FBC2
:10401000FEF704F8FEF76AF8FEF734F8E949E848D5
:1040200008604FF41650C1E901040C20CC60C1E9CE
:1040300004408C610846CC61FDF710FF08B172B6F0
:10404000FEE7E049A1F1A000FCF7CAFADD481E2115
:10405000A038FCF7FAFADB489038FDF755FDD9484F
:104060004838FDF751FD002210212846FCF732FCAC
:10407000012220212846FCF72DFC4FF47A60FCF742
:1040800027FBD14D286800F0FFFBD04F02460B46BE
:104090000020394600F0A0FA00F06CFAA5F10C06F9
:1040A0003060686800F0F0FB02460B46002039469D
:1040B00000F092FA00F05EFA7060A86800F0E4FB8D
:1040C0000B4602460020394600F086FA00F052FA0C
:1040D000B060BF4D4FF47A7640F2DC58AC603046A9
:1040E0006C60FCF7F5FAFCF7BDFA286002680C2A50
:1040F00007DA43680C2B04DA81680C2901DA009195
:1041000017E2B42A1CDD4368B42B19DD8168B42999
:1041100016DDD71A282F13DAAB480091ADA10C3069
:10412000FCF776F8A8480C30FCF7F6F881B2A64800
:104130000C30FCF73FFA3046FCF7CAFA09222DE1B1
:1041400043689A421EDD8768D91B00D5494202297F
:1041500018DBD11A0A2915DD282913DA9A48A5A1F6
:104160000C300097FCF754F897480C30FCF7D4F863
:1041700081B295480C30FCF71DFA3046FCF7A8FADE
:104180000A220BE1282A18DA282B16DA8168282956
:1041900013DA8D4800919FA10C30FCF739F88A485A
:1041A0000C30FCF7B9F881B287480C30FCF702FA02
:1041B0003046FCF78DFA0822F0E0D11A32291DDBD7
:1041C0008768A2EB070CBCF1320F17DB642B15DA02
:1041D000642F13DA7C4897A10C300097FCF718F88D
:1041E00079480C30FCF798F881B277480C30FCF72E
:1041F000E1F93046FCF76CFA0122CFE09A421EDD6D
:104200008768BB421BDD3C2919DAB42F17DA782AFC
:1042100015DD0A2913DD6C488DA10C300097FBF7E2
:10422000F7FF69480C30FCF777F881B266480C302C
:10423000FCF7C0F93046FCF74BFA0522AEE09A4293
:1042400021DDD0F808C0B3EB0C0700D57F42142F56
:1042500019DA3C2917DDBCF1B40F14DA5A4884A1ED
:104260000C30CDF800C0FBF7D3FF57480C30FCF7FB
:1042700053F881B254480C30FCF79CF93046FCF7F7
:1042800027FA07228AE09A421ADD87689F4217DDE3
:10429000BA4215DD322913DD4B487DA10C30009761
:1042A000FBF7B6FF48480C30FCF736F881B24648B9
:1042B0000C30FCF77FF93046FCF70AFA02226DE079
:1042C0008068C11A042916DB871A042F13DB0090BB
:1042D0003D4877A10C30FBF79BFF3B480C30FCF7C7
:1042E0001BF881B238480C30FCF764F93046FCF713
:1042F000EFF9042252E0012917DB811A11F1030FB3
:1043000013DB0090304872A10C30FBF781FF2E4880
:104310000C30FCF701F881B22B480C30FCF74AF95D
:104320003046FCF7D5F9032238E0991A012916DB4B
:10433000191A0A2913DB009023486DA10C30FBF7F2
:1043400067FF21480C30FBF7E7FF81B21E480C30B5
:10435000FCF730F93046FCF7BBF906221EE0A2F16B
:104360003201822927D2A3F13201822923D2A0F17E
:10437000320182291FD20090134865A10C30FBF74F
:1043800047FF11480C30FBF7C7FF81B20E480C30D5
:10439000FCF710F93046FCF79BF90B220948012184
:1043A000A038FCF72BF94046FCF792F90548A038F5
:1043B000FCF750F992E6BBE0001002400008014013
:1043C000003801401C030020A801002000E06F40DD
:1043D0000C00002052203D2025642C2047203D2049
:1043E00025642C2042203D2025640A574849544525
:1043F0000A00000052203D2025642C2047203D204B
:1044000025642C2042203D2025640A42524F574EFD
:104410000A00000052203D2025642C2047203D202A
:1044200025642C2042203D2025640A424C41434B08
:104430000A00000052203D2025642C2047203D200A
:1044400025642C2042203D2025640A5245440A0060
:1044500052203D2025642C2047203D2025642C201F
:1044600042203D2025640A59454C4C4F570A000014
:1044700052203D2025642C2047203D2025642C20FF
:1044800042203D2025640A4F52414E47450A000014
:1044900052203D2025642C2047203D2025642C20DF
:1044A00042203D2025640A50494E4B0A000000007E
:1044B00052203D2025642C2047203D2025642C20BF
:1044C00042203D2025640A424C55450A0000000068
:1044D00052203D2025642C2047203D2025642C209F
:1044E00042203D2025640A505552504C450A000098
:1044F00052203D2025642C2047203D2025642C207F
:1045000042203D2025640A475245454E0A000000DE
:1045100052203D2025642C2047203D2025642C205E
:1045200042203D2025640A475241590A00000000FC
:10453000009006A10E48FBF76BFE0D48FBF7ECFE62
:1045400081B20B48FCF736F8C8E5000052203D2048
:1045500025642C2047203D2025642C2042203D202E
:1045600025640A554E444546494E45440A0000001C
:10457000B401002021F00042A2F16052B2F5801F88
:1045800001F0004328BFD2F17F6C0BD95FEA001C19
:1045900043EAC20242EB507018BF704728BF20F0B8
:1045A00001007047B2F5801FBCBF184670474FEA44
:1045B000410C1CF5001F02D2084600F02EBB70B55E
:1045C00000F079F900000089FFF7F6BF4FF00040D6
:1045D000A0F58000704700002DE9C04130B4DFF83D
:1045E000A0C23CEA111418BF3CEA131400F0EC809E
:1045F00081EA03051CEA111444EAD57418BF1CEAC9
:10460000131500F0C780A4EB05044FF0004545EA00
:10461000C12145EAC32341EA505143EA525304F110
:104620007F74994204F500344FEAC0204FEAC22259
:1046300008BF904200F09C804FEA13650FF24016CD
:10464000765D4FEA134506FB05F7C7F1807706FB59
:1046500007F74FEAD737A7FB03687642C8F58038DB
:10466000A7FB06CE38BFA8F1010807FB08E64FF00C
:10467000000EA6FB028CE6FB03CEDCF1000CCEF1B3
:10468000004E38BFAEF1010EA6FB0C584FF00007EC
:104690004FF00005E6FB0E87A1FB08C6A0FB07CE86
:1046A00016EB0E0645F10005E1FB076515F1E04E3E
:1046B0007EBFA4F580345FEA46066D4116F180079F
:1046C00045F100054FEA17274FEA066647EA0567F6
:1046D000A6F1DE46B6F1805F4FEA15251FD93846B0
:1046E00024F0010C05EBC471BCF1FE6F01EB0C1161
:1046F00002D8F0BCBDE8008124425CBF01F5801EF9
:104700009EEAC47F02D4F0BCBDE80081244238D4C4
:10471000F0BCA1F1C041BDE8004100F01AB94FEA78
:10472000D22242EA43524FEAD323A7FB02864FEA42
:10473000D02040EA415007FB03661EEA0E0F4FEA05
:10474000D12105FB026658BFA6EB0056B6EB00561A
:104750004FEA520E4EEAC37E18EB0E0E56EB530E86
:10476000BDD518EB02085E417F1C55F10005B6E788
:104770004FF480154FF000074FF000064FF000088F
:10478000ADE7F0BC4FF0000001F1C04101F0004185
:10479000BDE8008111EA0C1F0CEA131500D00CE0F3
:1047A00013EA0C1F00F025804FF00000F0BC81EAF6
:1047B000030101F00041BDE80081F0BCBDE800410B
:1047C00081EA030100F0C5B8F0BCBDE8004170B556
:1047D00000F071F8097EFC3E00F007B881EA0301A1
:1047E0004FF0000001F00041704781EA030100F042
:1047F000B0B8F0BCBDE800414FF00000214970475F
:10480000FFFDFBF9F7F5F4F2F0EEEDEBE9E8E6E495
:10481000E3E1E0DEDDDBDAD8D7D5D4D3D1D0CFCD1C
:10482000CCCBCAC8C7C6C5C4C2C1C0BFBEBDBCBB55
:10483000BAB9B8B7B6B5B4B3B2B1B0AFAEADACAB50
:10484000AAA9A8A8A7A6A5A4A3A3A2A1A09F9F9E2A
:104850009D9C9C9B9A9999989797969595949393DC
:10486000929191908F8F8E8E8D8C8C8B8B8A898973
:1048700088888787868585848483838282818180F6
:104880000000FF070000F87F10F0004248BF4042E0
:10489000B0FA80F310FA03F10AD0C3F11D0303F557
:1048A00080634FEA415002EB035202EBD121704783
:1048B0004FF0000070470EF1020E2EF0030E5EF86E
:1048C000046B364205D4012A43EB030515F5001F9E
:1048D00012D8012841EB010C1CF5001F0CD80ED199
:1048E0004FEAD17C15F5001F0CEB4C0C0CF1020CBF
:1048F00008BF4CEBD37C04E04FF0080C01E04FEA1A
:10490000D37C0CEB4C0526FA05F606F00706B6F14B
:10491000040C06D20EEB860CBDE870404CF0010C86
:104920006047DFE80CF0090B02024FF000414FF046
:104930000000A1F5002170BD19461046012851EB79
:10494000010418BFD4F5001484BF002001F0004119
:1049500070BD0808A0F500114FEA31017047000052
:1049600090EA010F48BF81F0004100F16281421AD4
:104970003CBF801A89184FEAD0524FF07F4C1CEA96
:10498000410FA2EBD15318BF9CEA026F00F03B80AD
:104990004FF0004C4CEA00204CEA012121FA03FCC4
:1049A00010EB0C0C1ED202F1FF325FEA1C2040EB30
:1049B000C25038BF70471CF07F0F4FEA400C18BF41
:1049C000BCF17F4F38BF7047C3F12003994008BF47
:1049D00020F00100BCF17F4F38BF7047A0F1C0400C
:1049E00000F01BB94FEA3C00000A40EBC25028BF60
:1049F0001CF0FF0F4FEA400CE6D018BFBCF17F4F10
:104A000038BF7047EAE79CEA026F05D010EA5C0FF6
:104A100008BF00F00040704710B500F0B8F800BFC4
:104A200064FBBE3E41000B0ED3F19E0208D950F448
:104A300000034FEA032323FA02F048BF40427047C5
:104A400010B500F0A4F800BF499224800020704700
:104A50006FF0004282EA20007047000010F0004131
:104A600048BF4042B0FA80F310FA03F2C3F19D034D
:104A70000BD051EAC35101EB1220530638BF7047E7
:104A800000F1010008BF20F0010070474FF47F0CD7
:104A90001CEAD0121EBF1CEAD11392EA0C0F93EA53
:104AA0000C0F00F0478090EA010F48BF42F480727B
:104AB0004FF0004C4CEA00204CEA012102EB0302CB
:104AC000A0FB0113A2F50002002918BF43F0010367
:104AD0005B0028BF4FEA330342EB22425FEA132C0C
:104AE0004CEBC2502EBFBCEB436FB2F57C0F70474E
:104AF0004FEA036CBCF1004F08BF20F00100B2F593
:104B00007C0F38BF70470BD582F0FF0212F5803F53
:104B1000C8BF704700F1C040D8BF00F000407047E8
:104B200000F5000C5FEA4C0C48BF7047B0F1C04084
:104B300000F073B890EA010F0CEAD11348BF42F4B9
:104B40008072624538BF634504D280EA010000F0FC
:104B50000040704710B500F01AF800BF8900013E10
:104B600000F007B800F009B85FEA410C5FEA1C6C7E
:104B700008D080EA010000F050B85FEA400C5FEA1C
:104B80001C6CF6D14FF00040A0F5800070470EF18C
:104B9000020E2EF0030E5EF8044B244204D44FEABA
:104BA0004102B2F17F4F11D84FEA4003B3F17F4F7A
:104BB0000CD80ED14FEAD07CB2F17F4F0CEB4C0CED
:104BC0000CF1020C08BF4CEBD17C04E04FF0080C58
:104BD00001E04FEAD17C0CEB4C0324FA03F404F01F
:104BE0000704B4F1040C06D20EEB840CBDE81040AF
:104BF0004CF0010C6047DFE80CF0070802024FF0B0
:104C00000040A0F5800010BD0846420018BFD2F158
:104C1000807288BF00F0004010BDFF2141EAD050F3
:104C2000C005704790EA010F48BF81F000413FF591
:104C30009EAE421A04D882F00042A0EB020011445A
:104C40004FEAD0524FF07F4C1CEA410FA2EBD153F8
:104C500018BF9CEA026F4AD04FF0004C4CEA00208B
:104C60004CEA012121FA03FCB0EB0C0C0FD412F03A
:104C7000FE0F36D05FEA4C001DD5001240EBC2504B
:104C800038BF70471CF03F0F18BF70470BE0A2F110
:104C900001025FEA1C2040EBC25038BF70471CF095
:104CA0007F0F18BF7047C3F12003994014BF401E07
:104CB00020F00100704780084FEA122308BF7047B8
:104CC000B0FA80FCA2EB0C02CCF1280C60FA0CF0DC
:104CD00093EA122F04BF00EBC25070474FEAC37033
:104CE0007047130A5FEADC1008BF7047F6E79CEADA
:104CF000026F04D010EA5C0F08BF0020704710B5A7
:104D0000FFF745FF40DFF63E81F0004070470000AE
:104D1000000000000000010203040607080900006B
:104D20000000010203040000484D000800000020BC
:104D30009C010000280100080C4E00089C01002086
:104D4000F419000084010008647EFF06E2EF3201DE
:104D500082101324F413112B1B0841041A4D041A5A
:104D600075041AA10413F12A1B081D08170403096E
:104D7000041201140202021640830440571D02016E
:104D8000020341031A1A031B79054819041A710416
:104D90001A9D0441130A0632022A407C1C09024370
:104DA00047111DC03209048D1A020B130524161079
:104DB000010524011009010424020205240617013B
:104DC00007058203081C1009047D320A1D0705012E
:104DD00002432C070581070938442A40072A810726
:104DE000112B0907440A3B0444137D281408E527C6
:104DF0004C086529E81A29101A71101AB704C11A4B
:0C4E000065182A591C19041A4D04000002
:04000005080000ED02
:00000001FF
